:1000000004308A007D2C0000FF00030E8301A10054
:100010007F08A0000A08A7008A01A00E0408A20019
:100020007708A3007808A4007908A5007A08A6003C
:10003000831383128B1E1E280B196C282208840040
:100040002308F7002408F8002508F9002608FA001C
:1000500027088A00210E8300FF0E7F0E09000A1078
:100060008A100A11820700348734FF340A108A107C
:100070000A11820700340234043408341034203466
:100080000A108A100A118207063411341534093413
:10009000023414340B34103404341E340D3412344E
:1000A0000A108A100A1182070934023400345408F5
:1000B000F801530203185F285308F7006B28F70173
:1000C0000830D500D30DF70D540877020318F70058
:1000D000F80DD50B622808002A180510AE0B7D28F4
:1000E0002A1C7A282F08D3000330D4005720F708A1
:1000F000031905141030AE00AF0A0B118A111E2827
:100100004B30840083130008031993280130F80052
:10011000F701F70B8928F80B88285B30F700F70BFD
:100120008F28800B86280800850186012E308316D3
:100130008500FF3086008113831281018316010838
:10014000C03907388100640083128B16C0308B04DD
:10015000B12CF801F901F701FA014F08031DB3288A
:100160004E080319CD281030D0000310CC0DCD0D52
:10017000F70DFA0D4F087A02031DC0284E087702CA
:10018000031CC9284E08F702031CFA034F08FA02A1
:100190000314F80DF90DD00BB5280800F701F8018C
:1001A0004B0803104C18F707F70CF80CCC18F7079E
:1001B000F70CF80C4C19F707F70CF80CCC19F707EB
:1001C000F70CF80C4C1AF707F70CF80CCC1AF707D9
:1001D000F70CF80C4C1BF707F70CF80CCC1BF707C7
:1001E000F70CF80C080083169B019C131C141A08CA
:1001F0008312BC0001303C07C900A8018B1BA81763
:100200008B134908D3000630D4005720A81B8B1746
:100210007708BB003C08053C031811290F30A900E2
:1002200013290A30A9000608B700FF30B7063708BF
:100230000739B8003808F83E03184A29083E7829DB
:100240000530B9003C30BE004A290130B9003C30CD
:10025000BE004A290530B9000C30BE004A290330DF
:10026000B9003C30BE004A290230B9001E30BE0041
:100270004A290230B9000C30BE004A292B14013043
:10028000B9003C30BE000A30A9004A290530B90047
:100290000630BE00BB08031D55293808053C031C69
:1002A00055290130B9007830BE000230CD005830F9
:1002B000CC00CF013E08CE00A9207808C30003106F
:1002C000430CC200B2010130BD003708F839B1005B
:1002D000B10CB10CB10C1F30B1053108CB000630A8
:1002E000CC00CE207808B100831681178312B22C7F
:1002F0000A148A100A118207202925292A292F2960
:10030000342939293E2946296430CB008020051C38
:100310008B2905108C29051408003E082F02031CA8
:10032000C1293E08AF02B00A300843020318A029D1
:100330000130B000B20803199F29B203A029C70AEF
:10034000A8018B1BA8178B133008D3004208D400D8
:100350005720A81B8B17770BAE29AA17A8018B1B58
:10036000A8178B133008D3003908D4005720A81BD6
:100370008B177708BA00BA08031DC0293908BA00DC
:100380002A1508000230AA068518C8298421C42924
:100390008D213108B200BB080319DB29A8018B1B92
:1003A000A8178B133B08D3003908D4005720A81B8B
:1003B0008B177708BD00BD08031DE0293908BD0073
:1003C000D02C0330CD00E830CC00CF013408CE0073
:1003D000A9207908CD007808CC004D08CF004C0842
:1003E000CE00D1014B08D0001030D200F701FA0145
:1003F000CF0CCE0C031C022A5008F7070318FA0A88
:100400005108FA07FA0CF70CF90CF80CD20BF82982
:100410007908B6007808B50008004A08CB00E12149
:1004200005123608FA0035080319B603B503CB00E8
:100430007A08CC00CB08031D202ACC080319242AF3
:100440000130CB008020112A08004A08CB00E121AE
:1004500005163608FA0035080319B603B503CB00B4
:100460007A08CC00CB08031D382ACC0803193C2A93
:100470000130CB008020292A0512080041082F02F4
:10048000031C4A2A41082F02031D7C2A2E080B3C1C
:1004900003187C2AC908031D502A0330CA000D2204
:1004A0004908803C0318632A4908013C0318632A61
:1004B0000310C90C031C5F2A3408CA00252201302E
:1004C000CA000D22542A4908013C0318792A031056
:1004D000C90C031C722A0330CA0025220130CA004D
:1004E0000D22782A0130CA0025220130CA000D22CF
:1004F000632A0230CA000D2208000330CA000D2210
:100500002B1C882A3C084020C800C9003E22962A9D
:100510000330CA000D220730C9003E220F30C90047
:100520003E223B083620C800C9003E2208000A309F
:10053000B4000330CA000D226430CB008020831643
:100540009B019C131C141A088312BC000510013077
:100550003C07C900A8018B1BA8178B134908D300BF
:100560000630D4005720A81B8B177708BB003C0827
:10057000053C0318C02A2B18C02A0F30B400C22A29
:100580000A30B4007D220B08F7008B1383169B0101
:1005900083123C0883169A009C131C1555309D004D
:1005A000AA309D009C149C18D32A1C117708831232
:1005B0008B04851CDD2A8421D92ABC0A3C080B3C0B
:1005C000031CBC01A62AD02C0730CA000D22013022
:1005D000AC002C0883169B009C131C141A08FF3CCB
:1005E0000319012B83122C0883169B009C131C14E7
:1005F0001A088312C8004808C9003E22AC0AE92A3A
:10060000831683120800831681130A308312B40004
:100610000930C9003E220230C9003E220330CA0020
:100620000D22E4220130AC00851C182B8421142BF0
:1006300005100608FF3AB70037080319292B013ABD
:1006400003192A2B813A0319652B7F3A0319A12B31
:10065000B92BE92BAD012D08023C031C642B2D089E
:100660005020C8000B08F7008B132C0883169B0042
:100670008312480883169A009C131C1555309D0060
:10068000AA309D009C149C18432B1C1177088312E0
:100690008B0401302C07C8000B08F7008B134808A7
:1006A00083169B00FF309A009C131C1555309D004B
:1006B000AA309D009C149C185B2B1C117708831298
:1006C0008B04AC0AAD0A2B2BE92BAD012D082F2092
:1006D000FF3C0319A02B2D082F20C8000B08F700A2
:1006E0008B132C0883169B008312480883169A00EC
:1006F0009C131C1555309D00AA309D009C149C181D
:100700007F2B1C11770883128B0401302C07C80043
:100710000B08F7008B13480883169B00FF309A00E4
:100720009C131C1555309D00AA309D009C149C18EC
:10073000972B1C11770883128B04AD0AAC0A662B29
:10074000E92B0B08F7008B132C0883169B008312F0
:10075000370883169A009C131C1555309D00AA304B
:100760009D009C149C18B22B1C11770883128B04DB
:10077000E92B0B08F7008B132C0883169B008312C0
:10078000370883169A009C131C1555309D00AA301B
:100790009D009C149C18CA2B1C11770883128B0493
:1007A00001302C07C8000B08F7008B13480883168C
:1007B0009B00FF309A009C131C1555309D00AA30F9
:1007C0009D009C149C18E22B1C11770883128B044B
:1007D000AC0AE422370F142BD02C1030AE00AF013E
:1007E0000130B000BA002A15FF30C100D12C2A1008
:1007F00005148518FD2B0516F92B05122A14051072
:100800000800B2080319252C2A141E30B400B208BF
:100810000319252C8D213108063C0318222C32089F
:10082000063C031C222CAA1F222C01303B02CA00CA
:10083000CB000530CC00CE2078082F02031D222CDF
:100840007D22AA13851CF723072C2A100510D22C11
:100850004708113C031C792C8D213A083D020319ED
:10086000342CBD08031D752C2A1D752CAA1A502C7A
:100870001E30B4002F08AD00013083169B009C137E
:100880001C141A08FF3C03194B2C8312E42203307A
:10089000CA000D22831683122D082F02BF00AA164C
:1008A0002908B4003E08C100AA1F592C3F08C10204
:1008B0005D2C2B185D2C0130C1022908B4004108C1
:1008C0002F020318652C7D225F2CFF30C1001E30E3
:1008D000B400AA1F6E2CE422AA13732C2B18732CBD
:1008E0000D30C9003E222A11782C2A14851CF723CA
:1008F000282C2A1005106300D32C03081F3983000D
:100900002A10AA102A11AA112A12AA122A13AA1707
:100910002B10AC01AD011030AE00AF010130B000C2
:10092000B101B201B3010A30B400B601B501B7019B
:10093000B8010530B900BA01BB01BC01BD011E30D0
:10094000BE00BF01C001FF30C100C201C301C6012A
:10095000C70107309F0083130130CB0080202A108D
:100960009428F3280514003085180130C8000030A1
:10097000851A0130F7000310F70D77084807AC001F
:100980002C08023A0319CB2C033A0319CD2C013A57
:100990000319CF2CD02CC229D02C972AD02C032B72
:0809A000ED2B012C282C630053
:104200000000080007003F00100016001200FF0029
:02400E00013F70
:00000001FF
;PIC16F628A
;CRC=3CE2  CREATED="09-Aug-22 14:42"
