:1000000004308A00802C0000FF00030E8301A10051
:100010007F08A0000A08A7008A01A00E0408A20019
:100020007708A3007808A4007908A5007A08A6003C
:10003000831383128B1E1E280B196C282208840040
:100040002308F7002408F8002508F9002608FA001C
:1000500027088A00210E8300FF0E7F0E09000A1078
:100060008A100A11820700348734FF340A108A107C
:100070000A11820700340234043408341034203466
:100080000A108A100A118207063411341534093413
:10009000023414340B34103404341E340D3412344E
:1000A0000A108A100A1182070934023400345408F5
:1000B000F801530203185F285308F7006B28F70173
:1000C0000830D500D30DF70D540877020318F70058
:1000D000F80DD50B622808002A180510AE0B7D28F4
:1000E0002A1C7A282F08D3000330D4005720F708A1
:1000F000031905141030AE00AF0A0B118A111E2827
:100100004B30840083130008031993280130F80052
:10011000F701F70B8928F80B88285B30F700F70BFD
:100120008F28800B86280800850186012E308316D3
:100130008500FF3086008113831281018316010838
:10014000C03907388100640083128B16C0308B04DD
:10015000B42CF801F901F701FA014F08031DB32887
:100160004E080319CD281030D0000310CC0DCD0D52
:10017000F70DFA0D4F087A02031DC0284E087702CA
:10018000031CC9284E08F702031CFA034F08FA02A1
:100190000314F80DF90DD00BB5280800F701F8018C
:1001A0004B0803104C18F707F70CF80CCC18F7079E
:1001B000F70CF80C4C19F707F70CF80CCC19F707EB
:1001C000F70CF80C4C1AF707F70CF80CCC1AF707D9
:1001D000F70CF80C4C1BF707F70CF80CCC1BF707C7
:1001E000F70CF80C080083169B019C131C141A08CA
:1001F0008312BC0001303C07C900A8018B1BA81763
:100200008B134908D3000630D4005720A81B8B1746
:100210007708BB003C08053C031811290F30A900E2
:1002200013290A30A9000608B700FF30B7063708BF
:100230000739B8003808F83E03184D29083E7B29D5
:100240000530B9003C30BE004D290130B9003C30CA
:10025000BE004D290530B9000C30BE004D290330D9
:10026000B9003C30BE004D290230B9001E30BE003E
:100270004D290230B9000C30BE004D292B1401303D
:10028000B9003C30BE000A30A9004D292B140230C1
:10029000B9001E30BE000A30A900BB08031D582952
:1002A0003808053C031C58290130B9007830BE00DD
:1002B0000230CD005830CC00CF013E08CE00A9203E
:1002C0007808C3000310430CC200B2010130BD0026
:1002D0003708F839B100B10CB10CB10C1F30B105C1
:1002E0003108CB000630CC00CE207808B100831650
:1002F00081178312B52C0A148A100A11820720294B
:1003000025292A292F29342939293E2946296430CB
:10031000CB008020051C8E2905108F2905140800AC
:100320003E082F02031CC4293E08AF02B00A300861
:1003300043020318A3290130B000B2080319A2290F
:10034000B203A329C70AA8018B1BA8178B13300877
:10035000D3004208D4005720A81B8B17770BB12974
:10036000AA17A8018B1BA8178B133008D3003908D4
:10037000D4005720A81B8B177708BA00BA08031DB2
:10038000C3293908BA002A1508000230AA068518C0
:10039000CB298721C72990213108B200BB08031956
:1003A000DE29A8018B1BA8178B133B08D300390843
:1003B000D4005720A81B8B177708BD00BD08031D6C
:1003C000E3293908BD00D32C0330CD00E830CC0040
:1003D000CF013408CE00A9207908CD007808CC00E0
:1003E0004D08CF004C08CE00D1014B08D000103092
:1003F000D200F701FA01CF0CCE0C031C052A5008DD
:10040000F7070318FA0A5108FA07FA0CF70CF90C67
:10041000F80CD20BFB297908B6007808B500080063
:100420004A08CB00E42105123608FA003508031902
:10043000B603B503CB007A08CC00CB08031D232AF2
:10044000CC080319272A0130CB008020142A080089
:100450004A08CB00E42105163608FA0035080319CE
:10046000B603B503CB007A08CC00CB08031D3B2AAA
:10047000CC0803193F2A0130CB0080202C2A05121A
:10048000080041082F02031C4D2A41082F02031DBA
:100490007F2A2E080B3C03187F2AC908031D532A04
:1004A0000330CA0010224908803C0318662A490814
:1004B000013C0318662A0310C90C031C622A340885
:1004C000CA0028220130CA001022572A4908013CDC
:1004D00003187C2A0310C90C031C752A0330CA00B8
:1004E00028220130CA0010227B2A0130CA002822AB
:1004F0000130CA001022662A0230CA001022080009
:100500000330CA0010222B1C8B2A3C084020C80054
:10051000C9004122992A0330CA0010220730C900BD
:1005200041220F30C90041223B083620C800C900D3
:10053000412208000A30B4000330CA00102264309F
:10054000CB00802083169B019C131C141A08831275
:10055000BC00051001303C07C900A8018B1BA8177F
:100560008B134908D3000630D4005720A81B8B17E3
:100570007708BB003C08053C0318C32A2B18C32A84
:100580000F30B400C52A0A30B40080220B08F700EF
:100590008B1383169B0183123C0883169A009C13CD
:1005A0001C1555309D00AA309D009C149C18D62A1D
:1005B0001C11770883128B04851CE02A8721DC2A12
:1005C000BC0A3C080B3C031CBC01A92AD32C0730F5
:1005D000CA0010220130AC002C0883169B009C132B
:1005E0001C141A08FF3C0319042B83122C088316D1
:1005F0009B009C131C141A088312C8004808C900E9
:100600004122AC0AEC2A8316831208008316811358
:100610000A308312B4000930C90041220230C900F7
:1006200041220330CA001022E7220130AC00851CB1
:100630001B2B8721172B05100608FF3AB700370838
:1006400003192C2B013A03192D2B813A0319682B1E
:100650007F3A0319A42BBC2BEC2BAD012D08023CD7
:10066000031C672B2D085020C8000B08F7008B13C4
:100670002C0883169B008312480883169A009C134B
:100680001C1555309D00AA309D009C149C18462BCB
:100690001C11770883128B0401302C07C8000B084B
:1006A000F7008B13480883169B00FF309A009C13B9
:1006B0001C1555309D00AA309D009C149C185E2B83
:1006C0001C11770883128B04AC0AAD0A2E2BEC2B7D
:1006D000AD012D082F20FF3C0319A32B2D082F203F
:1006E000C8000B08F7008B132C0883169B0083129D
:1006F000480883169A009C131C1555309D00AA309B
:100700009D009C149C18822B1C11770883128B046B
:1007100001302C07C8000B08F7008B13480883161C
:100720009B00FF309A009C131C1555309D00AA3089
:100730009D009C149C189A2B1C11770883128B0423
:10074000AD0AAC0A692BEC2B0B08F7008B132C08B5
:1007500083169B008312370883169A009C131C157E
:1007600055309D00AA309D009C149C18B52B1C117F
:10077000770883128B04EC2B0B08F7008B132C08E3
:1007800083169B008312370883169A009C131C154E
:1007900055309D00AA309D009C149C18CD2B1C1137
:1007A000770883128B0401302C07C8000B08F70070
:1007B0008B13480883169B00FF309A009C131C156E
:1007C00055309D00AA309D009C149C18E52B1C11EF
:1007D000770883128B04AC0AE722370F172BD32C30
:1007E0001030AE00AF010130B000BA002A15FF3062
:1007F000C100D42C2A1005148518002C0516FC2BDA
:1008000005122A1405100800B2080319282C2A140E
:100810001E30B400B2080319282C90213108063C80
:100820000318252C3208063C031C252CAA1F252C56
:1008300001303B02CA00CB000530CC00CE20780846
:100840002F02031D252C8022AA13851CFA230A2CB3
:100850002A100510D52C4708113C031C7C2C902134
:100860003A083D020319372CBD08031D782C2A1DB8
:10087000782CAA1A532C1E30B4002F08AD0001307A
:1008800083169B009C131C141A08FF3C03194E2C62
:100890008312E7220330CA001022831683122D0828
:1008A0002F02BF00AA162908B4003E08C100AA1FE3
:1008B0005C2C3F08C102602C2B18602C0130C10257
:1008C0002908B40041082F020318682C8022622CEA
:1008D000FF30C1001E30B400AA1F712CE722AA13FA
:1008E000762C2B18762C0D30C90041222A117B2C36
:1008F0002A14851CFA232B2C2A1005106300D62CF1
:1009000003081F3983002A10AA102A11AA112A12DB
:10091000AA122A13AA172B10AC01AD011030AE0099
:10092000AF010130B000B101B201B3010A30B4002F
:10093000B601B501B701B8010530B900BA01BB0174
:10094000BC01BD011E30BE00BF01C001FF30C100AF
:10095000C201C301C601C70107309F0083130130E4
:10096000CB0080202A109428F32805140030851825
:100970000130C8000030851A0130F7000310F70D70
:1009800077084807AC002C08023A0319CE2C033A2A
:100990000319D02C013A0319D22CD32CC529D32CFE
:0E09A0009A2AD32C062BF02B042C2B2C630050
:104200000000080007003F00100016001200FF0029
:02400E00013F70
:00000001FF
;PIC16F628A
;CRC=3F8E  CREATED="27-Jul-22 13:28"
