:1000000000308A00DF2A0000FF00030E8301A100F8
:100010007F08A0000A08A8008A01A00E0408A20018
:100020007708A3007808A4007908A5007A08A6003C
:100030007B08A700831383128B1E20280B197028BE
:10004000220884002308F7002408F8002508F90096
:100050002608FA002708FB0028088A00210E8300E2
:10006000FF0E7F0E09000A108A100A118207003461
:100070008734FF340A108A100A11820700340234D0
:1000800004340834103420340A108A100A1182070C
:100090000634113415340934023414340B3410345A
:1000A00004341E340D3412340A108A100A118207E7
:1000B0000934023400345508F80154020318632847
:1000C0005408F7006F28F7010830D600D40DF70D5B
:1000D000550877020318F700F80DD60B6628003490
:1000E0002B180510AF0B81282B1C7E283008D4005C
:1000F0000330D5005B20F708031905141030AF005A
:10010000B00A0B118A1120284C3084000008031912
:1001100096280130F800F701F70B8C28F80B8B2894
:100120005B30F700F70B9228800B8928003485019B
:1001300086012E306500FF3066008316811383121E
:1001400081010730F700F71DAD28073081018130AC
:1001500084000008C0390F388000640081308400BA
:100160000008C039770480008B16C0308B04122B36
:10017000F801F901F701FA015008031DC2284F08E0
:100180000319DC281030D1000310CD0DCE0DF70D72
:10019000FA0D50087A02031DCF284F087702031C7E
:1001A000D8284F08F702031CFA035008FA02031478
:1001B000F80DF90DD10BC42800000034F701F80147
:1001C0004C0803104D18F707F70CF80CCD18F7077B
:1001D000F70CF80C4D19F707F70CF80CCD19F707C9
:1001E000F70CF80C4D1AF707F70CF80CCD1AF707B7
:1001F000F70CF80C4D1BF707F70CF80CCD1BF707A5
:10020000F70CF80C003483169B019C131C141A087D
:100210008312BD0001303D07CA00A9018B1BA9173D
:100220008B134A08D4000630D5005B20A91B8B171E
:100230007708BC003D08053C031821290F30AA00AF
:1002400023290A30AA000608B800FF30B80638088B
:100250000739B9003908F83E03185E29083E8C2991
:100260000530BA003C30BF005E290530BA001E30B0
:10027000BF005E290530BA000C30BF005E29023095
:10028000BA003C30BF005E290230BA001E30BF0009
:100290005E290230BA000C30BF005E292C140130F8
:1002A000BA003C30BF000A30AA005E292C1402308C
:1002B000BA001E30BF000A30AA005E29BC08031D28
:1002C00069293908053C031C69290130BA007830D6
:1002D000BF000230CE005830CD00D0013F08CF0023
:1002E000B8207808C4000310440CC300B3010130E7
:1002F000BE003808F839B200B20CB20CB20C1F3094
:10030000B2053208CC000630CD00DE207808B200FD
:10031000831681178312132B0A148A100A1182077D
:10032000302935293A293F29442949294E29562976
:100330006430CC008420051C9F290510A0290514D9
:1003400000343F083002031CD5293F08B002B10A2F
:10035000310844020318B4290130B100B30803196D
:10036000B329B303B429C80AA9018B1BA9178B139E
:100370003108D4004308D5005B20A91B8B17770BED
:10038000C229AB17A9018B1BA9178B133108D40005
:100390003A08D5005B20A91B8B177708BB00BB0868
:1003A000031DD4293A08BB002B1500340230AB06DC
:1003B0008518DC299821D829A1213208B300BC086E
:1003C0000319EF29A9018B1BA9178B133C08D40033
:1003D0003A08D5005B20A91B8B177708BE00BE0822
:1003E000031DF4293A08BE006A2C1030F700FA0108
:1003F000D301D00CCF0C031C032A5108FA070318B1
:10040000D30A5208D307D30CFA0CF90CF80CF70BEB
:10041000F9291E2A0330CE00E830CD00D00135087E
:10042000CF00B8207908CE007808CD007908D00038
:100430007808CF00D2014C08D100F5297908B7001F
:100440007808B60000344B08CC000A2205123708A1
:10045000FA0036080319B703B603CC007A08CD00BA
:10046000CC08031D362ACD0803193A2A0130CC00E6
:100470008420272A00344B08CC000A2205163708AE
:10048000FA0036080319B703B603CC007A08CD008A
:10049000CC08031D4E2ACD080319522A0130CC0086
:1004A00084203F2A0512003442083002031C602ACF
:1004B00042083002031D922A2F080B3C0318922A8F
:1004C000CA08031D662A0330CB0023224A08803C59
:1004D0000318792A4A08013C0318792A0310CA0C28
:1004E000031C752A3508CB003B220130CB002322A8
:1004F0006A2A4A08013C03188F2A0310CA0C031CFD
:10050000882A0330CB003B220130CB0023228E2AE5
:100510000130CB003B220130CB002322792A02306C
:10052000CB00232200340330CB0023222C1C9E2A34
:100530003D084420C900CA005422AC2A0330CB0035
:1005400023220730CA0054220F30CA0054223C082C
:100550003A20C900CA00542200340730CB002322BD
:100560000130AD002D0883169B009C131C141A0843
:10057000FF3C0319C92A83122D0883169B009C1384
:100580001C141A088312C900CA005422AD0AB22AE8
:100590008316831200341030AF00B0010130B10077
:1005A000BB002B15FF30C2006B2C2B1005148518D7
:1005B000DB2A0516D72A05122B14051000348401F6
:1005C0001F30830507309F002B10AB102B11AB1190
:1005D0002B12AB122B13AB172C10AD01AE01103048
:1005E000AF00B0010130B100B201B301B4010A3073
:1005F000B500B601B701B801B9010530BA00BB01B9
:10060000BC01BD01BE011E30BF00C001C101FF30F1
:10061000C200C301C401C701C8010130CC0084205D
:100620002B10972803290514003085180130C900C4
:100630000030851A0130F7000310F70D77084907DD
:10064000AD002D08023A03192C2B033A03192D2B68
:10065000013A03197B2B6A2CD6290A30B5000330E6
:10066000CB0023226430CC00842083169B019C1392
:100670001C141A088312BD00051001303D07CA0082
:10068000A9018B1BA9178B134A08D4000630D5008B
:100690005B20A91B8B177708BC003D08053C03189D
:1006A000562B2C18562B0F30B500582B0A30B5009E
:1006B000932283169B0183123D0883169A001C1512
:1006C00083120B08F7008B13831655309D00AA3058
:1006D0009D009C149C186A2B1C11770883128B04B4
:1006E000851C742B9821702BBD0A3D080B3C031C04
:1006F000BD013C2B6A2C831681130A308312B5008E
:100700000930CA0054220230CA0054220330CB0000
:100710002322AD220130AD00851C902B98218C2B1B
:1007200005100608FF3AB8003808003A0319A22B52
:10073000013A0319A32B813A0319DF2B7F3A0319DE
:100740001C2C352C662CAE012E08023C031CDE2B23
:100750002E085420C9002D0883169B0083124908D7
:1007600083169A001C1583120B08F7008B1383164F
:1007700055309D00AA309D009C149C18BD2B1C1167
:10078000770883128B0401302D07C90083169B0064
:10079000FF309A001C1583120B08F7008B13831689
:1007A00055309D00AA309D009C149C18D52B1C111F
:1007B000770883128B04AD0AAE0AA42B662CAE0117
:1007C0002E083320FF3C03191B2C2E083320C900B0
:1007D0002D0883169B008312490883169A001C1566
:1007E00083120B08F7008B13831655309D00AA3037
:1007F0009D009C149C18FA2B1C11770883128B0403
:1008000001302D07C90083169B00FF309A001C158C
:1008100083120B08F7008B13831655309D00AA3006
:100820009D009C149C18122C1C11770883128B04B9
:10083000AE0AAD0AE02B662C2D0883169B008312AE
:10084000380883169A001C1583120B08F7008B13C7
:10085000831655309D00AA309D009C149C182E2CA8
:100860001C11770883128B04662C2D0883169B00BD
:100870008312380883169A001C1583120B08F700A0
:100880008B13831655309D00AA309D009C149C1834
:10089000472C1C11770883128B0401302D07C900E7
:1008A00083169B00FF309A001C1583120B08F7007B
:1008B0008B13831655309D00AA309D009C149C1804
:1008C0005F2C1C11770883128B04AD0AAD22380F00
:1008D0008C2B6A2CCB2AB3080319932C2B141E30B3
:1008E000B500B3080319932CA1213208063C031864
:1008F000902C3308063C031C902C0030AB1B0130BD
:10090000013C031D902C01303C02CB00CC00053093
:10091000CD00DE2078083002031D902C9322AB130B
:10092000851CD522712C2B1005104808113C031C86
:10093000FE2CA1213B083E020319A12CBE08031D79
:10094000FA2C00302B190130013C031DFA2C003029
:10095000AB1A0130003A031DC52C1E30B50030081B
:10096000AE00013083169B009C131C141A08FF3C38
:100970000319C02C8312AD220330CB00232283162F
:1009800083122E083002C000AB162A08B5003F08BB
:10099000C2000030AB1B0130013C031DD22C4008CB
:1009A000C202DA2C00302C180130003A031DDA2C78
:1009B0000130C2022A08B500420830020318E22CB6
:1009C0009322DC2CFF30C2001E30B5000030AB1B80
:1009D0000130013C031DEF2CAD22AB13F82C00308D
:1009E0002C180130003A031DF82C0D30CA00542297
:1009F0002B11FD2C2B14851CD522952C2B100510AA
:040A0000630063002C
:0C420000000006000A0009001400FF0086
:02400E00013F70
:00000001FF
;PIC16F628A
