:1000000000308A00BF2A0000FF00030E8301A10018
:100010007F08A0000A08A8008A01A00E0408A20018
:100020007708A3007808A4007908A5007A08A6003C
:100030007B08A700831383128B1E20280B194F28DF
:10004000220884002308F7002408F8002508F90096
:100050002608FA002708FB0028088A00210E8300E2
:10006000FF0E7F0E09000A108A100A118207003461
:100070008734FF346A08F8016902031842286908C6
:10008000F7004E28F7010830EB00E90DF70D6A087C
:1000900077020318F700F80DEB0B452800342A18F7
:1000A0000510AE0B60282A1C5D282F08E9000330DC
:1000B000EA003A20F708031905141030AE00AF0A21
:1000C0000B118A112028613084000008031975285B
:1000D0000130F800F701F70B6B28F80B6A285B304A
:1000E000F700F70B7128800B682800348501860122
:1000F0002E306500FF306600831681138312810164
:100100000730F700F71D8C2807308101813084000B
:100110000008C0390F388000640081308400000876
:10012000C039770480008B16C0308B041B2BF8017C
:10013000F901F701FA016508031DA12864080319F4
:10014000BB281030E6000310E20DE30DF70DFA0DA9
:1001500065087A02031DAE2864087702031CB728DD
:100160006408F702031CFA036508FA020314F80D89
:10017000F90DE60BA32800000034F701F80161082F
:1001800003106218F707F70CF80CE218F707F70CE2
:10019000F80C6219F707F70CF80CE219F707F70CDF
:1001A000F80C621AF707F70CF80CE21AF707F70CCD
:1001B000F80C621BF707F70CF80CE21BF707F70CBB
:1001C000F80C003483169B019C131C141A0883122C
:1001D000BC0001303C07DF00A9018B1BA9178B1362
:1001E0005F08E9000630EA003A20A91B8B17770860
:1001F000BB003C08053C031800290F30DD00022934
:100200000A30DD000608B700FF30B70637080739A7
:10021000B8003808F83E03183D29083E6B29053020
:10022000B9003C30BE003D290530B9001E30BE008B
:100230003D290530B9000C30BE003D290230B9001F
:100240003C30BE003D290230B9001E30BE003D29C1
:100250000230B9000C30BE003D292B140130B9002A
:100260003C30BE000A30DD003D292B140230B900BD
:100270001E30BE000A30DD003D29BB08031D4829A1
:100280003808053C031C48290130B9007830BE000D
:100290000230E3005830E200E5013E08E400972018
:1002A0007808C3000310430CC200B2010130BD0046
:1002B0003708F839B100B10CB10CB10C1F30B105E1
:1002C0003108E1000630E200BD207808B100831655
:1002D000811783121C2B0A148A100A1182070F2916
:1002E000142919291E29232928292D293529643063
:1002F000E1006320051C7E2905107F2905140034C8
:100300003E082F02031CB1293E08AF02B00A300894
:100310004302031890290130B000B208031DB20354
:10032000A9018B1BA9178B133008E9004208EA00CA
:100330003A20A91B8B17770B9E29AA17A9018B1BA3
:10034000A9178B133008E9003908EA003A20A91BE5
:100350008B177708BA00BA08031DB0293908BA000C
:100360002A1500340230AA068518B8297721B42945
:1003700080213108B200BB080319CB29A9018B1BCE
:10038000A9178B133B08E9003908EA003A20A91B9A
:100390008B177708BD00BD08031DD0293908BD00A3
:1003A000752C1030F700FA01E801E50CE40C031C91
:1003B000DF296608FA070318E80A6708E807E80C67
:1003C000FA0CF90CF80CF70BD529FA290330E300E5
:1003D000E830E200E5013408E40097207908E30002
:1003E0007808E2007908E5007808E400E701610890
:1003F000E600D1297908B6007808B5000034600815
:10040000E100E62105123608FA0035080319B603A3
:10041000B503E1007A08E200E108031D122AE208B0
:100420000319162A0130E1006320032A0034600812
:10043000E100E62105163608FA0035080319B6036F
:10044000B503E1007A08E200E108031D2A2AE20868
:1004500003192E2A0130E10063201B2A0512003403
:1004600041082F02031C3C2A41082F02031D6E2A5B
:100470002E080B3C03186E2ADF08031D422A0330A6
:10048000E000FF215F08803C0318552A5F08013C0B
:100490000318552A0310DF0C031C512A3408E0000E
:1004A00017220130E000FF21462A5F08013C0318B3
:1004B0006B2A0310DF0C031C642A0330E0001722B0
:1004C0000130E000FF216A2A0130E00017220130EC
:1004D000E000FF21552A0230E000FF210034033004
:1004E000E000FF212B1C7C2A4E303C0784000008D2
:1004F000DE00DF0030228C2A0330E000FF210730CD
:10050000DF0030220F30DF00302248303B0784000C
:100510000008DE00DF00302200340730E000FF2159
:100520000130AC002C0883169B009C131C141A0885
:10053000FF3C0319A92A83122C0883169B009C13E5
:100540001C141A088312DE00DF003022AC0A922A43
:100550008316831200341030AE00AF010130B000BA
:10056000BA002A15FF30C100762C2A100514851810
:10057000BB2A0516B72A05122A1405100034840177
:100580001F30830507309F002A10AA102A11AA11D4
:100590002A12AA122A13AA172B10AC01AD0110308F
:1005A000AE00AF010130B000B101B201B3010A30B9
:1005B000B400B501B601B701B8010530B900BA0100
:1005C000BB01BC01BD011E30BE00BF01C001FF3038
:1005D000C100C201C301C6010630C700C801023014
:1005E000C9000430CA000830CB001030CC002030E5
:1005F000CD000630CE001130CF001530D0000930CC
:10060000D1000230D2001430D3000B30D4001030AF
:10061000D5000430D6001E30D7000D30D80012307F
:10062000D9000930DA000230DB00DC010130E100E2
:1006300063202A107628E22805140030851801303E
:10064000DE000030851A0130F7000310F70D77083F
:100650005E07AC002C08023A0319352B033A031944
:10066000362B013A0319842B752CB2290A30B400B9
:100670000330E000FF216430E100632083169B011A
:100680009C131C141A088312BC00051001303C078F
:10069000DF00A9018B1BA9178B135F08E900063047
:1006A000EA003A20A91B8B177708BB003C08053CE1
:1006B00003185F2B2B185F2B0F30B400612B0A300F
:1006C000B4006F2283169B0183123C0883169A00A4
:1006D0001C1583120B08F7008B13831655309D00F1
:1006E000AA309D009C149C18732B1C117708831250
:1006F0008B04851C7D2B7721792BBC0A3C080B3C95
:10070000031CBC01452B752C831681130A30831200
:10071000B4000930DF0030220230DF003022033025
:10072000E000FF218D220130AC00851C992B772140
:10073000952B05100608FF3AB7003708003A031951
:10074000AB2B013A0319AC2B813A0319EA2B7F3A00
:100750000319272C402C712CAD012D08023C031CE1
:10076000E92B5A302D0784000008DE002C08831680
:100770009B0083125E0883169A001C1583120B08D7
:10078000F7008B13831655309D00AA309D009C14F2
:100790009C18C82B1C11770883128B0401302C077E
:1007A000DE0083169B00FF309A001C1583120B0895
:1007B000F7008B13831655309D00AA309D009C14C2
:1007C0009C18E02B1C11770883128B04AC0AAD0A2D
:1007D000AD2B712CAD012D083320FF3C0319262CC5
:1007E0002D083320DE002C0883169B0083125E0840
:1007F00083169A001C1583120B08F7008B138316BF
:1008000055309D00AA309D009C149C18052C1C118D
:10081000770883128B0401302C07DE0083169B00BF
:10082000FF309A001C1583120B08F7008B138316F8
:1008300055309D00AA309D009C149C181D2C1C1145
:10084000770883128B04AD0AAC0AEB2B712C2C08B1
:1008500083169B008312370883169A001C15831297
:100860000B08F7008B13831655309D00AA309D00AE
:100870009C149C18392C1C11770883128B04712C42
:100880002C0883169B008312370883169A001C15C8
:1008900083120B08F7008B13831655309D00AA3086
:1008A0009D009C149C18522C1C11770883128B04F9
:1008B00001302C07DE0083169B00FF309A001C15C8
:1008C00083120B08F7008B13831655309D00AA3056
:1008D0009D009C149C186A2C1C11770883128B04B1
:1008E000AC0A8D22370F952B752CAB2AB208031951
:1008F0009E2C2A141E30B400B20803199E2C8021AD
:100900003108470203189B2C32084702031C9B2C1A
:100910000030AA1B0130013C031D9B2C01303B021F
:10092000E000E1000530E200BD2078082F02031D41
:100930009B2C6F22AA13851CB5227C2C2A10051033
:1009400080213A083D020319A82CBD08031D012D82
:1009500000302A190130013C031D012D0030AA1A74
:100960000130003A031DCC2C1E30B4002F08AD001E
:10097000013083169B009C131C141A08FF3C0319BA
:10098000C72C83128D220330E000FF2183168312CF
:100990002D082F02BF00AA165D08B4003E08C10052
:1009A0000030AA1B0130013C031DD92C3F08C102B5
:1009B000E12C00302B180130003A031DE12C0130EE
:1009C000C1025D08B40041082F020318E92C6F2210
:1009D000E32CFF30C1001E30B4000030AA1B0130F0
:1009E000013C031DF62C8D22AA13FF2C00302B187E
:1009F0000130003A031DFF2C0D30DF0030222A1198
:0C0A0000042D2A14851CB522A02C6300D4
:0C420000000006000A0009001400FF0086
:02400E00013F70
:00000001FF
;PIC16F628A
